{
  "contractName": "DaiFaucet",
  "abi": [
    {
      "inputs": [],
      "stateMutability": "nonpayable",
      "type": "constructor"
    },
    {
      "anonymous": false,
      "inputs": [
        {
          "indexed": true,
          "internalType": "address",
          "name": "from",
          "type": "address"
        },
        {
          "indexed": false,
          "internalType": "uint256",
          "name": "amount",
          "type": "uint256"
        }
      ],
      "name": "Deposit",
      "type": "event"
    },
    {
      "anonymous": false,
      "inputs": [
        {
          "indexed": true,
          "internalType": "address",
          "name": "to",
          "type": "address"
        },
        {
          "indexed": false,
          "internalType": "uint256",
          "name": "amount",
          "type": "uint256"
        }
      ],
      "name": "Withdrawal",
      "type": "event"
    },
    {
      "stateMutability": "payable",
      "type": "receive",
      "payable": true
    },
    {
      "inputs": [
        {
          "internalType": "address",
          "name": "_recipient",
          "type": "address"
        },
        {
          "internalType": "uint256",
          "name": "_amount",
          "type": "uint256"
        }
      ],
      "name": "transferDai",
      "outputs": [],
      "stateMutability": "nonpayable",
      "type": "function"
    },
    {
      "inputs": [],
      "name": "daiBalance",
      "outputs": [
        {
          "internalType": "uint256",
          "name": "",
          "type": "uint256"
        }
      ],
      "stateMutability": "view",
      "type": "function",
      "constant": true
    },
    {
      "inputs": [],
      "name": "destroy",
      "outputs": [],
      "stateMutability": "nonpayable",
      "type": "function"
    }
  ],
  "bytecode": "0x608060405234801561001057600080fd5b50734f96fe3b7a6cf9725f59d353f723c1bdb64ca6aa6000806101000a81548173ffffffffffffffffffffffffffffffffffffffff021916908373ffffffffffffffffffffffffffffffffffffffff16021790555033600160006101000a81548173ffffffffffffffffffffffffffffffffffffffff021916908373ffffffffffffffffffffffffffffffffffffffff160217905550610938806100b56000396000f3fe6080604052600436106100385760003560e01c80630e7bb7071461009257806383197ef0146100bd578063f48b39dd146100d45761008d565b3661008d573373ffffffffffffffffffffffffffffffffffffffff167fe1fffcc4923d04b559f4d29a8bfc6cda04eb5b0d3c460751c2402c5c5cc9109c3460405161008391906107cc565b60405180910390a2005b600080fd5b34801561009e57600080fd5b506100a76100fd565b6040516100b491906107cc565b60405180910390f35b3480156100c957600080fd5b506100d26101ae565b005b3480156100e057600080fd5b506100fb60048036038101906100f6919061064a565b6103f6565b005b60008060009054906101000a900473ffffffffffffffffffffffffffffffffffffffff1673ffffffffffffffffffffffffffffffffffffffff166370a08231306040518263ffffffff1660e01b81526004016101599190610748565b60206040518083038186803b15801561017157600080fd5b505afa158015610185573d6000803e3d6000fd5b505050506040513d601f19601f820116820180604052508101906101a991906106b7565b905090565b3373ffffffffffffffffffffffffffffffffffffffff16600160009054906101000a900473ffffffffffffffffffffffffffffffffffffffff1673ffffffffffffffffffffffffffffffffffffffff161461023e576040517f08c379a0000000000000000000000000000000000000000000000000000000008152600401610235906107ac565b60405180910390fd5b60008054906101000a900473ffffffffffffffffffffffffffffffffffffffff1673ffffffffffffffffffffffffffffffffffffffff1663a9059cbb600160009054906101000a900473ffffffffffffffffffffffffffffffffffffffff1660008054906101000a900473ffffffffffffffffffffffffffffffffffffffff1673ffffffffffffffffffffffffffffffffffffffff166370a08231306040518263ffffffff1660e01b81526004016102f69190610748565b60206040518083038186803b15801561030e57600080fd5b505afa158015610322573d6000803e3d6000fd5b505050506040513d601f19601f8201168201806040525081019061034691906106b7565b6040518363ffffffff1660e01b8152600401610363929190610763565b602060405180830381600087803b15801561037d57600080fd5b505af1158015610391573d6000803e3d6000fd5b505050506040513d601f19601f820116820180604052508101906103b5919061068a565b506000600160009054906101000a900473ffffffffffffffffffffffffffffffffffffffff1690508073ffffffffffffffffffffffffffffffffffffffff16ff5b674563918244f4000081111561040b57600080fd5b8060008054906101000a900473ffffffffffffffffffffffffffffffffffffffff1673ffffffffffffffffffffffffffffffffffffffff166370a08231306040518263ffffffff1660e01b81526004016104659190610748565b60206040518083038186803b15801561047d57600080fd5b505afa158015610491573d6000803e3d6000fd5b505050506040513d601f19601f820116820180604052508101906104b591906106b7565b10156104f6576040517f08c379a00000000000000000000000000000000000000000000000000000000081526004016104ed9061078c565b60405180910390fd5b60008054906101000a900473ffffffffffffffffffffffffffffffffffffffff1673ffffffffffffffffffffffffffffffffffffffff1663a9059cbb83836040518363ffffffff1660e01b8152600401610551929190610763565b602060405180830381600087803b15801561056b57600080fd5b505af115801561057f573d6000803e3d6000fd5b505050506040513d601f19601f820116820180604052508101906105a3919061068a565b503373ffffffffffffffffffffffffffffffffffffffff167f7fcf532c15f0a6db0bd6d0e038bea71d30d808c7d98cb3bf7268a95bf5081b65826040516105ea91906107cc565b60405180910390a25050565b600081359050610605816108bd565b92915050565b60008151905061061a816108d4565b92915050565b60008135905061062f816108eb565b92915050565b600081519050610644816108eb565b92915050565b6000806040838503121561066157610660610840565b5b600061066f858286016105f6565b925050602061068085828601610620565b9150509250929050565b6000602082840312156106a05761069f610840565b5b60006106ae8482850161060b565b91505092915050565b6000602082840312156106cd576106cc610840565b5b60006106db84828501610635565b91505092915050565b6106ed816107f8565b82525050565b6000610700603c836107e7565b915061070b82610845565b604082019050919050565b6000610723600e836107e7565b915061072e82610894565b602082019050919050565b61074281610836565b82525050565b600060208201905061075d60008301846106e4565b92915050565b600060408201905061077860008301856106e4565b6107856020830184610739565b9392505050565b600060208201905081810360008301526107a5816106f3565b9050919050565b600060208201905081810360008301526107c581610716565b9050919050565b60006020820190506107e16000830184610739565b92915050565b600082825260208201905092915050565b600061080382610816565b9050919050565b60008115159050919050565b600073ffffffffffffffffffffffffffffffffffffffff82169050919050565b6000819050919050565b600080fd5b7f496e73756666696369656e742062616c616e636520696e207468697320636f6e60008201527f747261637420666f72207769746864726177616c207265717565737400000000602082015250565b7f4163636573732044656e69656421000000000000000000000000000000000000600082015250565b6108c6816107f8565b81146108d157600080fd5b50565b6108dd8161080a565b81146108e857600080fd5b50565b6108f481610836565b81146108ff57600080fd5b5056fea2646970667358221220bc7bda31fd254ebe375848941119e8e0357a7ec5023b666b44134d889ca7462a64736f6c63430008060033",
  "immutableReferences": {},
  "source": "// SPDX-License-Identifier: MIT\npragma solidity ^0.8.4;\n\nimport \"@openzeppelin/contracts/token/ERC20/IERC20.sol\";\n\ncontract DaiFaucet {\n    IERC20 daiContract;\n    address owner;\n\n    event Withdrawal(address indexed to, uint256 amount);\n    event Deposit(address indexed from, uint256 amount);\n\n    constructor() {\n        daiContract = IERC20(0x4F96Fe3b7A6Cf9725f59d353F723c1bDb64CA6Aa);\n        owner = msg.sender;\n    }\n\n    // Accept any incoming amount\n    receive() external payable {\n        emit Deposit(msg.sender, msg.value);\n    }\n\n    function transferDai(address _recipient, uint256 _amount) external {\n        //limiting withdrawal amount to 5 Dai/ transaction\n        require(_amount <= 5000000000000000000);\n\n        //Checking contract's Dai balance\n        require(\n            daiContract.balanceOf(address(this)) >= _amount,\n            \"Insufficient balance in this contract for withdrawal request\"\n        );\n\n        // Send the amount to the address that requested it\n        daiContract.transfer(_recipient, _amount);\n        emit Withdrawal(msg.sender, _amount);\n    }\n\n    //To check remaining dai in this contract\n    function daiBalance() public view returns (uint256) {\n        return daiContract.balanceOf(address(this));\n    }\n\n    // To shutdown the contract.\n    function destroy() public {\n        //only owner can shutdown this contract\n        require(owner == msg.sender, \"Access Denied!\");\n        daiContract.transfer(owner, daiContract.balanceOf(address(this)));\n\n        // cast address to payable\n        address payable addr = payable(address(owner));\n        selfdestruct(addr);\n    }\n}\n",
  "sourcePath": "D:/Applications/Dai Faucet/contracts/DaiFaucet.sol",
  "compiler": {
    "name": "solc",
    "version": "0.8.6+commit.11564f7e.Emscripten.clang"
  },
  "schemaVersion": "3.4.0",
  "updatedAt": "2021-06-26T14:33:19.332Z",
  "networkType": "ethereum",
  "devdoc": {
    "kind": "dev",
    "methods": {},
    "version": 1
  },
  "userdoc": {
    "kind": "user",
    "methods": {},
    "version": 1
  }
}